:020000040000FA
:060000000A128A110C280F
:10000800FE00030EF2000A08F3000A128A112929D9
:100018000A128A110F28F601F701F801F901830184
:100028000A128A118429F500831203131F149F14DE
:100038001F083F3940389F00831603131F129F1271
:10004800D928831603170814C330831203139F0596
:1000580083160313051417298316031788148312AC
:1000680003131F08C33904389F008316031385142C
:100078001729831603170815831203131F08C3399A
:1000880008389F00831603130515172983160317CD
:100098008815831203131F08C3390C389F00831671
:1000A80003138515172983160317081683120313DC
:1000B8001F08C33910389F008316031385161729A4
:1000C800831603178816831203131F08C3391438BD
:1000D8009F0083160313091417298316031708179B
:1000E800831203131F08C33918389F00831603139C
:1000F80089141729831603178817831203131F08F7
:10010800C3391C389F008316031309151729831652
:1001180003170914831203131F08C33920389F00DB
:1001280083160313061517298316031789148312D8
:1001380003131F08C33924389F0083160313861539
:100148001729831603170915831203131F08C339C8
:1001580028389F008316031386141729831603175C
:100168008915831203131F08C3392C389F0083167F
:100178000313061617298316031709168312031388
:100188001F08C33930389F00831603130614172934
:10019800831603178916831203131F08C3393438CB
:1001A8009F008316031386161729750883120313F5
:1001B800A000A1012108003A0319E3281729200803
:1001C800003A03192528013A03193028033A03197C
:1001D8003D28013A03194A28073A03195728013AD2
:1001E80003196428033A03197128013A03197E2870
:1001F8000F3A03198B28013A03199828033A03196F
:10020800A528013A0319B228073A0319BF28013A69
:100218000319CC281729831603139F13282983163B
:1002280003139F17282974088312A000A10121082D
:10023800003A0319202928292008003A03190F2910
:10024800013A0319132928290800831203130C1FE4
:100258002E292F2950297708031D332934294029AD
:100268001F08C33928389F001E08F1007108F900DB
:10027800F701F70A0C134F297703031D4429452971
:100288004F291F08C33930389F001E08F100710834
:10029800F800F7013E299F148C1D532954297D2904
:1002A8000A128A11DF210A128A11F1007108F60078
:1002B80078080A128A11EF210A128A117603031D9F
:1002C800662967296E2979080A128A11EF210A120C
:1002D8008A117A2902307606031D732974297A292E
:1002E80078080A128A11EF210A128A11831203135D
:1002F8008C1173088A00720E8300FE0E7E0E0900B0
:100308008316031789018801831603138801850161
:10031800831203138501F4010A300A128A11172087
:100328000A128A11F4010C300A128A1117200A12D3
:100338008A110A128A11D6210A128A11831203130A
:100348009F148C11831603138C1583120313A001B9
:10035800A101A20124300A128A11B8210A128A11B5
:10036800B4290A128A110C28F40083160313871281
:10037800741DBF29C029C8298312031322088316B4
:10038800031394008715D02983120313200822042D
:10039800831603139400871174088312031321042E
:1003A80094000800831203130C13831603130C170D
:1003B8008B170B1708000A128A11E8210A128A11F2
:1003C800831203131308080083160313141CED2962
:1003D800EE29E8290800F00070088312031393003F
:0203E80008000B
:04400E00D4E0FFFFFC
:00000001FF
