:020000040000FA
:060000000A128A11FB2F19
:100C0000F000700883120313930008008316031387
:100C1000141C0B2E0C2E062E08000A128A11062612
:100C20000A128A118312031313080800F3008316B3
:100C300003138712731D1D2E1E2E222E7208940080
:100C40008715262E700872049400871173087104AA
:100C50008312031394000800831603178901880187
:100C60008316031386018312031386010030A90043
:100C70000030A8002530A7008030A6000A128A1193
:100C800021270A128A11F001F101F20120300A1223
:100C90008A1116260A128A110730FC007D30FB00EB
:100CA000FB0B502EFC0B502E01300A128A1100262D
:100CB0000A128A110A128A110D260A128A11C730E5
:100CC000FB00622EFB0B612E652E662E02300A128F
:100CD0008A1100260A128A110A128A110D260A1296
:100CE0008A11FB007B0883120313B80038088600C2
:100CF0000730FC007D30FB00FB0B7C2EFC0B7C2EB8
:100D00004C2E0A128A11002883120313A101F31F2B
:100D10008A2E8B2E982EF009F109F209F309F00AB8
:100D20000319F10A0319F20A0319F30AA101A10A2E
:100D3000F71F9B2E9C2EAB2EF409F509F609F70937
:100D4000F40A0319F50A0319F60A0319F70A013020
:100D5000F8007808A1060030A5000030A40000309B
:100D6000A3000030A2007308720471047004031918
:100D7000BA2EBB2E082FA001A00ACB2E0130F800FE
:100D80000310F00DF10DF20DF30DF80BC02E013034
:100D9000F8007808A007F31FCE2ECF2EBE2E01300C
:100DA000F8000310A20DA30DA40DA50DF80BD12E74
:100DB00073087702031DE62E72087602031DE62EE5
:100DC00071087502031DE62E70087402031CE92EDB
:100DD000EA2EF92E7008F4027108031C710FF50257
:100DE0007208031C720FF6027308031C730FF702DC
:100DF000221401300310F30CF20CF10CF00CFF3E46
:100E0000031DFA2E0130A002031D072F082FCF2E3D
:100E1000210803190C2F0D2F182FA209A309A409CB
:100E2000A509A20A0319A30A0319A40A0319A50A0A
:100E30002508F3002408F2002308F1002208F0003E
:100E40000800831203132608AA002708AB0028080D
:100E5000AC002908AD0006300310AA0DAB0DAC0D97
:100E6000AD0DFF3E031D2C2F2D08F3002C08F200C2
:100E70002B08F1002A08F0002608AE002708AF0072
:100E80002808B0002908B10006300310AE0DAF0DE0
:100E9000B00DB10DFF3E031D452F0030B2000930EB
:100EA000B3003D30B4000030B5002E08B2022F0868
:100EB000031C2F0F5C2F5D2FB3023008031C300F73
:100EC000622F632FB4023108031C310F682F692F82
:100ED000B5023508F7003408F6003308F50032088B
:100EE000F4000A128A1184260A128A117108FA0083
:100EF0007008F90001307A02003003197902031CEE
:100F0000822F832FDF2F831203132608AA002708BE
:100F1000AB002808AC002908AD0004300310AA0D6E
:100F2000AB0DAC0DAD0DFF3E031D8E2F2D08F30054
:100F30002C08F2002B08F1002A08F0002608AE0069
:100F40002708AF002808B0002908B10004300310BA
:100F5000AE0DAF0DB00DB10DFF3E031DA72F00303C
:100F6000B2000930B3003D30B4000030B5002E08A7
:100F7000B2022F08031C2F0FBE2FBF2FB302300861
:100F8000031C300FC42FC52FB4023108031C310FCE
:100F9000CA2FCB2FB5023508F7003408F600330806
:100FA000F5003208F4000A128A1184260A128A1106
:100FB0007108FA007008F900831603131815013040
:100FC0007A020030031979020318E72FE82FFA2F6D
:100FD00079088316031399001812831203139817C4
:100FE0008316031387170717831203131816831624
:100FF000031398160800FD0183010A128A112C2E92
:04400E00D4E0FFFFFC
:00000001FF
