:020000040000FA
:060000000A128A11FB2F19
:100B8200F000700883120313930008008316031306
:100B9200141CCC2DCD2DC72D08000A128A11C72591
:100BA2000A128A1183120313130808008312031313
:100BB2008C1EDC2DDD2DE12D1A08F0007008FC00E2
:100BC2007C080800F20083160313981CE92DEA2D15
:100BD200E42D72088312031399008230F100DD3094
:100BE200F000F00BF22DF10BF22DF72D0800F300BF
:100BF200831603138712731DFF2D002E042E720815
:100C020094008715082E70087204940087117308E7
:100C120071048312031394000800831603178901D9
:100C22008801831603138601831203138601831638
:100C3200031385018312031385010030A9000030DC
:100C4200A8002530A7008030A6000A128A112127A9
:100C52000A128A11F001F101F20120300A128A11FE
:100C6200F8250A128A118312031338080A128A110C
:100C7200E3250A128A118312031336080A128A1113
:100C8200E3250A128A110A128A11D7250A128A1139
:100C9200FB007B0883120313B7003708860001307C
:100CA2000A128A11C1250A128A110A128A11CE2544
:100CB2000A128A11FB007B0883120313B80038085A
:100CC20085009F30FB00652EFB0B642E682E692E7B
:100CD20002300A128A11C1250A128A110A128A11D5
:100CE200CE250A128A11FB007B0883120313B60079
:100CF2009F30FB007C2EFB0B7B2E7F2E802E342E12
:100D02000A128A11002883120313A101F31F8A2EEB
:100D12008B2E982EF009F109F209F309F00A031952
:100D2200F10A0319F20A0319F30AA101A10AF71F32
:100D32009B2E9C2EAB2EF409F509F609F709F40A4D
:100D42000319F50A0319F60A0319F70A0130F80024
:100D52007808A1060030A5000030A4000030A300EE
:100D62000030A20073087204710470040319BA2ED1
:100D7200BB2E082FA001A00ACB2E0130F8000310D1
:100D8200F00DF10DF20DF30DF80BC02E0130F8004D
:100D92007808A007F31FCE2ECF2EBE2E0130F8000A
:100DA2000310A20DA30DA40DA50DF80BD12E7308EF
:100DB2007702031DE62E72087602031DE62E7108E5
:100DC2007502031DE62E70087402031CE92EEA2E3A
:100DD200F92E7008F4027108031C710FF5027208F3
:100DE200031C720FF6027308031C730FF70222141E
:100DF20001300310F30CF20CF10CF00CFF3E031D5A
:100E0200FA2E0130A002031D072F082FCF2E210832
:100E120003190C2F0D2F182FA209A309A409A50944
:100E2200A20A0319A30A0319A40A0319A50A250889
:100E3200F3002408F2002308F1002208F000080061
:100E4200831203132608AA002708AB002808AC0067
:100E52002908AD0006300310AA0DAB0DAC0DAD0D87
:100E6200FF3E031D2C2F2D08F3002C08F2002B0847
:100E7200F1002A08F0002608AE002708AF00280873
:100E8200B0002908B10006300310AE0DAF0DB00D51
:100E9200B10DFF3E031D452F0030B2000930B300F3
:100EA2003D30B4000030B5002E08B2022F08031CFA
:100EB2002F0F5C2F5D2FB3023008031C300F622FFF
:100EC200632FB4023108031C310F682F692FB5025A
:100ED2003508F7003408F6003308F5003208F4004C
:100EE2000A128A1184260A128A117108FA007008FD
:100EF200F90001307A02003003197902031C822FB3
:100F0200832FDF2F831203132608AA002708AB00C2
:100F12002808AC002908AD0004300310AA0DAB0D5F
:100F2200AC0DAD0DFF3E031D8E2F2D08F3002C08D6
:100F3200F2002B08F1002A08F0002608AE0027086C
:100F4200AF002808B0002908B10004300310AE0D2C
:100F5200AF0DB00DB10DFF3E031DA72F0030B20043
:100F62000930B3003D30B4000030B5002E08B202A3
:100F72002F08031C2F0FBE2FBF2FB3023008031CF4
:100F8200300FC42FC52FB4023108031C310FCA2FF2
:100F9200CB2FB5023508F7003408F6003308F50008
:100FA2003208F4000A128A1184260A128A11710880
:100FB200FA007008F90083160313181501307A023B
:100FC2000030031979020318E72FE82FFA2F790866
:100FD20083160313990018128312031398178316AA
:100FE20003138717071783120313181683160313A5
:0E0FF20098160800FC0183010A128A110E2EC7
:04400E00D4E0FFFFFC
:00000001FF
